:100000000C942C010C9441010C9441010C9441017D
:100010000C9441010C9441010C9441010C94410158
:100020000C9441010C9441010C9441010C94410148
:100030000C9441010C9441010C9441010C94410138
:100040000C9441010C9441010C9441010C94410128
:100050000C9441010C9441010C9441010C94410118
:100060000C9441010C9441010C9441010C94410108
:100070000C9441010C9441010C94410100000000DA
:100080000000005F00000003000300147F147F14D1
:10009000242A7F2A124333086661364955225000CC
:1000A00005030000001C2241000041221C0014082E
:1000B0003E081408083E08080050300000080808F0
:1000C0000808006060000020100804023E51494505
:1000D0003E0004027F0042615149462241494936AF
:1000E0001814127F1027454545393E4949493201C8
:1000F000017109073649494936264949493E0036C2
:100100003600000056360000081422410014141472
:100110001414004122140802015109063E415955A8
:100120005E7E0909097E7F494949363E41414122A7
:100130007F4141413E7F494949417F090909013ECB
:100140004141493A7F0808087F00417F4100304023
:1001500040403F7F081422417F404040407F020CD6
:10016000027F7F0204087F3E4141413E7F09090929
:10017000061E2121215E7F09090976264949493257
:1001800001017F01013F4040403F1F2040201F7F71
:100190002010207F41221C2241070870080761516E
:1001A000494543007F41000002040810200000413F
:1001B0007F0004020102044040404040000102046C
:1001C0000020545454787F444444383844444444D0
:1001D000384444447F385454541804047E050508B8
:1001E0005454543C7F0804047800447D400020406F
:1001F000443D007F1028440000417F40007C04788B
:1002000004787C0804047838444444387C1414147A
:1002100008081414147C007C080404485454542026
:1002200004043F44443C4040207C1C2040201C3CB3
:100230004030403C44281028440C5050503C44640A
:10024000544C44000836414100007F0000414136D3
:10025000080002010204020011241FBECFEFD0E10A
:10026000DEBFCDBF1AE0A0E0B1E0E8E8FFE002C0E9
:1002700005900D92A23AB107D9F70E9443010C9460
:10028000C2070C9400002F923F925F926F927F9270
:100290008F929F92AF92BF92CF92DF92EF92FF9296
:1002A0000F931F93DF93CF93CDB7DEB7C856D940D6
:1002B0000FB6F894DEBF0FBECDBFDE011996E0E0A9
:1002C000F1E080E699E001900D920197E1F70E943C
:1002D000610666247724AA24BB2460C07A826982DE
:1002E0003C822B82FE82ED8284E090E0E80EF91ED3
:1002F000F886EF82F4012081552089F430E0C901AD
:1003000080789070582F4427890100761070F3E0B0
:10031000000F111FFA95E1F72071307014C030E022
:10032000A90148705070542F44275295507FC9013D
:1003300086709070182F00272170307064E0220FB3
:10034000331F6A95E1F7042B152B022B132B298100
:100350003A814B815C816D817E818F8198850E947D
:100360007A025394F2E05F1609F0B8CF8CE090E087
:10037000C80ED91EE8E2F0E08E0E9F1EF4E4CF1600
:10038000F1E0DF0619F076015524A8CF8BE3A8161B
:10039000B10499F00894A11CB11C310199E0892E97
:1003A000912C8C0E9D1E8A0C9B1CCC24DD2484E099
:1003B000282E312C260C371CE6CFC859D64F0FB645
:1003C000F894DEBF0FBECDBFCF91DF911F910F918B
:1003D000FF90EF90DF90CF90BF90AF909F908F9065
:1003E0007F906F905F903F902F9008959C01909325
:1003F000650A8093640A149886E388B91398139A5F
:10040000149A2115310571F480EF90E09093610A00
:100410008093600A80E491E09093630A8093620A7B
:1004200088E432C02130310571F480E491E090938A
:10043000610A8093600A80EF90E09093630A809352
:10044000620A88EE21C02230310571F480EF90E01D
:100450009093610A8093600A80E491E09093630A2C
:100460008093620A88E810C02330310581F480E46B
:1004700091E09093610A8093600A80EF90E09093FE
:10048000630A8093620A88E288B91398139A1498D1
:100490008AE288B91398139A149A18B81398139A81
:1004A00018B81398139A8091600A9091610A019785
:1004B00098B901961398139A815088B91398139A92
:1004C00014988BE288B91398139A149A18B8139851
:1004D000139A18B81398139A8091620A9091630A3C
:1004E000019798B901961398139A815088B9139877
:1004F000139A0895EF92FF920F931F93DF93CF9378
:10050000CDB7DEB728970FB6F894DEBF0FBECDBFCC
:10051000F22F2983E32F3A834B835C83362F6D833D
:10052000272F7E838F8398877801AB81BC81062F2C
:10053000172F6F81788514988AE288B91398139AD7
:10054000149AE8B91398139AF8B91398139AB8B98A
:100550001398139AA8B91398139A14988BE288B930
:100560001398139A149A28B91398139A38B91398B0
:10057000139A78B91398139A68B91398139A149820
:100580008CE288B91398139A149A2F2F3E2FC90121
:10059000AC010DC0F8B81398139AE8B81398139AE1
:1005A0002F5F3F4F62177307A8F74F5F5F4FA41786
:1005B000B50710F09801F6CF28960FB6F894DEBF75
:1005C0000FBECDBFCF91DF911F910F91FF90EF90A4
:1005D0000895EF92FF920F931F93DF93CF93CDB7C0
:1005E000DEB728970FB6F894DEBF0FBECDBFF22F4F
:1005F0002983E32F3A834B835C83362F6D83272F28
:100600007E838F839887D8010B811C81E62EF72E7D
:100610006F81788514988AE288B91398139A149A8E
:10062000E8B91398139AF8B91398139A18B913984C
:10063000139A08B91398139A14988BE288B91398EF
:10064000139A149A28B91398139A38B91398139ACD
:1006500078B91398139A68B91398139A14988CE27E
:1006600088B91398139A149A2F2F3E2FC901AC0101
:1006700014C011968C91119788B91398139A1296F9
:100680008C91129788B914961398139A2F5F3F4F45
:100690006217730770F74F5F5F4F0417150710F06D
:1006A0009701F6CF28960FB6F894DEBF0FBECDBFE8
:1006B000CF91DF911F910F91FF90EF9008950F93CD
:1006C0001F93DF93CF93CDB7DEB728970FB6F8947B
:1006D000DEBF0FBECDBF1092670A1092660A10925D
:1006E000690A1092680A2091600A3091610A2150CB
:1006F00030408091620A9091630A01971A821982B0
:10070000422F3C832B831E821D8298878F8300910A
:100710006C0A10916D0A29813A815C816D817E811C
:1007200098850E947A0228960FB6F894DEBF0FBE15
:10073000CDBFCF91DF911F910F9108956F927F925E
:100740008F929F92AF92BF92CF92DF92EF92FF92E1
:100750000F931F93CF93DF93982F0091660A109108
:10076000670A24E0E22EF12CE00EF11E6090680A88
:100770007090690A80528F3508F09FC0E301279678
:1007800085E0989F900111242452304014988BE208
:1007900088B91398139A149A78B81398139A68B86A
:1007A0001398139AD8B91398139AC8B91398139A2F
:1007B000C0906A0AD0906B0AA0906C0AB0906D0A43
:1007C000A8019AE2892E8CE2982E36C0149888B837
:1007D0001398139A149A58B91398139A48B91398FE
:1007E000139A58B91398139A48B91398139A1498EE
:1007F00098B81398139A149AF901B491B30191E03F
:1008000014C0A92FAB2311F48B2D01C08D2D88B9F5
:100810001398139AAA2311F48A2D01C08C2D88B93C
:100820001398139A6F5F7F4F990FC617D70748F732
:100830002F5F3F4F4F5F5F4FE416F50638F6149871
:100840008AE288B91398139A149A58B91398139A8C
:1008500048B91398139A58B91398139A48B913982A
:10086000139A14988CE288B91398139A149AC301B6
:1008700007C0B8B81398139AA8B81398139A01969A
:10088000C817D907B0F798012A5F3F4F3093670A1E
:100890002093660A8091600A9091610A28173907AF
:1008A00060F01092670A1092660A88E090E0680E85
:1008B000791E7092690A6092680ADF91CF911F9148
:1008C0000F91FF90EF90DF90CF90BF90AF909F90EF
:1008D0008F907F906F9008951F93CF93DF93EC01DB
:1008E00010E003C00E949E031F5FFE01E10FF11D97
:1008F00080818823B9F7DF91CF911F9108952F92BE
:100900003F924F925F926F927F928F929F92AF929F
:10091000BF92CF92DF92EF92FF920F931F93DF93DC
:10092000CF93CDB7DEB764970FB6F894DEBF0FBE96
:10093000CDBF49835A836B837C838D839E832B8BAE
:100940003C8B2DB73EB73A8B298B0D811E812981B7
:100950003A814B815C81E1E08E2E912C801A910AC4
:10096000C901801B910B9E878D87F801E20FF31F51
:10097000FC87EB87CA01801B910B9A878987F80156
:10098000E40FF51FF887EF8314988AE288B913986B
:10099000139A149AFE85F8B91398139A8D8588B91D
:1009A0001398139A9C8598B91398139AEB85E8B914
:1009B0001398139A14988BE288B91398139A149A7F
:1009C000FA85F8B91398139A898588B91398139AF8
:1009D000988598B91398139AEF81E8B91398139AE8
:1009E00014988CE288B91398139A149A19018D857A
:1009F0009E85281A390A2A01E985FA854E1A5F0A66
:100A0000C801880F991F9C01220F331F388B2F8735
:100A1000AC01449FC001459F900D549F900D11243F
:100A2000880F991FEDB7FEB7E81BF90B0FB6F894C6
:100A3000FEBF0FBEEDBFADB6BEB60894A11CB11C83
:100A4000009F9001019F300D109F300D112443E055
:100A5000220F331F4A95E1F7C50160E070E0A9015C
:100A60000E94BB076801EE24FF2423E0622E712C54
:100A7000C601820D931D9701240D351D4F855889A0
:100A8000849F8001859F100D949F100D1124220FCB
:100A9000331FF901E00FF11FEA0DFB1D5B89508345
:100AA0008C898183C701820D931DD601A40DB51DCC
:100AB000EF85F8898E9FB0018F9F700D9E9F700DFE
:100AC0001124AA0FBB1FFD01E60FF71FEA0DFB1D46
:100AD00050834C894183C1018C199D09EF85F889A8
:100AE0008E9FA0018F9F500D9E9F500D1124240FAB
:100AF000351F2A0D3B1D8B89F90180839C899183C9
:100B0000C1018E199F09EF85F8898E9F90018F9FF3
:100B1000300D9E9F300D1124A20FB31FAA0DBB1DD7
:100B2000FB89FC938C8911968C93C2018E199F09C5
:100B3000880F991FFC01E40FF51FEA0DFB1D4B897F
:100B400040835C895183D201AC19BD09AA0FBB1F38
:100B5000FD01E20FF31FEA0DFB1D40835183800F5F
:100B6000911F8A0D9B1DFC0140835183A60FB71F67
:100B7000AA0DBB1D4C9311965C930894E11CF11CCB
:100B80008114910411F443010DC00894C108D108E7
:100B90000894811C911CC7018C199D09880F991F0D
:100BA000880E991E22E030E0620E731ECE14DF0420
:100BB00008F05ECFA0916C0AB0916D0A2D853E853C
:100BC00000E054C04F855889649FF001659FF00D87
:100BD000749FF00D1124EE0DFF1DEA0DFB1D019019
:100BE000F081E02D002369F4EA17FB0751F05C89DE
:100BF00058B91398139A8B8988B91398139A01E0FE
:100C00002BC0402F50E080E090E0EA17FB0711F482
:100C100081E090E084239523892B31F09C8998B959
:100C20001398139AEB8915C080E090E0EA17FB0750
:100C300011F081E090E048235923452B51F0FC89C5
:100C4000F8B91398139A4B8948B91398139A00E08E
:100C500003C0E8B91398139A6F5F7F4F8F8198850F
:100C60006817790708F4AECF2F5F3F4FEB85FC85FF
:100C70002E173F0730F469857A857901EE0CFF1C49
:100C8000EDCF29893A890FB6F8943EBF0FBE2DBF2C
:100C900064960FB6F894DEBF0FBECDBFCF91DF9143
:100CA0001F910F91FF90EF90DF90CF90BF90AF908A
:100CB0009F908F907F906F905F904F903F902F907C
:100CC000089585B7806885BF85B7806885BF8FE741
:100CD00081B98FEF87B90E946E060895129888EE49
:100CE00093E02CE231E0F9013197F1F70197D9F760
:100CF000129A88EE93E02CE231E0F9013197F1F796
:100D00000197D9F7149A139A159A10981198169A70
:100D1000149888E288B91398139A149A149881E168
:100D200088B91398139A149A88E592E02CE231E07E
:100D3000F9013197F1F70197D9F714988BEC88B93D
:100D40001398139A149A81E088B91398139A1498F7
:100D500080EC88B91398139A149A86E288B913988C
:100D6000139A88E088B91398139A149881EC88B97B
:100D70001398139A149A80E188B91398139A1498C7
:100D800085EC88B91398139A149A85E388B9139857
:100D9000139A8EE388B91398139A149886E388B946
:100DA0001398139A149A88E488B91398139A14988C
:100DB00080EB88B91398139A149A8AE488B9139827
:100DC000139A149881EB88B91398139A149A18B847
:100DD0001398139A8BE188B91398139A149886EB99
:100DE00088B91398139A149AECE9FAE0819188B9BA
:100DF0001398139A4AE0E03AF407C1F7149887EC85
:100E000088B91398139A149A85EB88B91398139A92
:100E1000149886EF88B91398139A149AE8E9FAE0BF
:100E2000819188B91398139A8AE0EB39F807C1F7D2
:100E3000149882EF88B91398139A149A18B81398D3
:100E4000139A149886E288B91398139A149A81E039
:100E500088B91398139A14988AE388B91398139A47
:100E6000149A85E588B91398139A149880EE88B976
:100E70001398139A149AE8E8FAE0819188B91398C4
:100E8000139A4AE0E739F407C1F7149881EE88B95C
:100E90001398139A149AE8E7FAE0819188B91398A5
:100EA000139A8AE0E738F807C1F714988AE288B9FC
:100EB0001398139A149AE3E7FAE0819188B913988A
:100EC000139A4AE0E737F407C1F714988BE288B920
:100ED0001398139A149AEEE6FAE0819188B9139860
:100EE000139A8AE0E237F807C1F7149884E388B9C7
:100EF0001398139A149A149884EB88B91398139A38
:100F0000149A18B81398139A149887EB88B9139801
:100F1000139A149A87E088B91398139A14988CE25C
:100F200088B91398139A149A20E030E010C018B8CA
:100F30001398139A18B81398139A019641E08034C5
:100F40009407A9F72F5F3F4F203F310519F080E04C
:100F500090E0EDCF149889E288B91398139A149A07
:100F600084EF91E02CE231E0F9013197F1F701973C
:100F7000D9F7119A0895DC0101C06D93415050409A
:080F8000E0F70895F894FFCF9B
:100F8800FFFFFFFFFFFFFFFFFF57355555553DFF9B
:100F9800FFFFFFFFFFFFFFFFFFFFFFFFFFFF000057
:100FA8000000000000000000FFFFFFFFFFFFFFFF41
:100FB800FF75355355535FFFFDFFFFFFFFFFFFFF31
:100FC800FFFFFFFFFFFF000000000000000000001F
:100FD800FFFFFFFFFFFFFFFFF57535555535FFFF95
:100FE800F5DFFFFFFFFFFFFFFFFFFFFFFFFF000031
:100FF8000000000000000000FFFFFFFFFFFFFFFFF1
:10100800F5753555533FFFFFD55FFFFFFFFFFFFF26
:10101800FFFFFFFFFFFF00000000000000000000CE
:10102800FFFFFFFFFFFFFFFFF773355533FFFFFD9E
:10103800555FFFFFFFFFFFFFFFFFFFFFFFFF000000
:101048000000000000000000FFFFFFFFFFFFFFFFA0
:10105800F77335533FFFFFD5555FFFFFFFFFFFFFD6
:10106800FFFFFFFFFFFF000000000000000000007E
:10107800FFFFFFFFFFFFFFFF77733533DFD20275F6
:101088005555FFFFFFFFFFFFFFFFFFFFFFFF0000BA
:101098000000000000000000FFFFFFFFFFFFFFFF50
:1010A8007773330000005F533553DFDDFFFFFFFF29
:1010B800FFFFFFFFFFFF000000000000000000002E
:1010C800FFFFFFFFFFFFFDFF7775320002FFF753B9
:1010D80033553335555FFFFFFFFFFFFFFFFF00006C
:1010E8000000000000000000FFFFFFFFFFFFFDDF22
:1010F80055550882FFFF77777553333555555FFF90
:10110800FFFFFFFFFFFF00000000000000000000DD
:10111800FFFFFFFFFFFFFF555752885FF77F777785
:1011280055333355555555FFFFFFFFFFFFFF0000AF
:101138000000000000000000FFFFFFFFFFFFFFF5B9
:101148002528857777777755333333355555555D6A
:10115800FFDFFFFFFFFF00000000000000000000AD
:10116800FFFFFFFFFFFFFFFFD288577777777F7575
:10117800533333555555555332222FFFFFFF000087
:101188000000000000000000FFFFFFFFFFFFFFFF5F
:10119800D085777777777777555555555555555580
:1011A80035550DFFFFFF00000000000000000000A3
:1011B800FFFFFFFFFFFFFFFF085777777777777706
:1011C800775555552232333325555055FFFF0000CA
:1011D8000000000000000000FFFFFFFFFFFFFFF21C
:1011E80085777777777777777555552CDDDDDDDD72
:1011F8003355523FFFFF00000000000000000000D0
:10120800FFFFFFFFFFFFFFFF277777777777777578
:10121800555DDC0DFFD2FFFFFD3352DFFFFF0000FD
:101228000000000000000000FFFFFFFFFFFFFFFFBE
:1012380057777777777577755DDDDD0DFF02FFFFEF
:10124800FFD33D2FFFFF000000000000000000005A
:10125800FFFFFFFFFFFFFFF5577777777555555568
:10126800DDDFFF0CFC0FFFFFFFFFFF2FFFFF00007C
:101278000000000000000000FFFFFFFFFFFF5335E4
:1012880055555555557777F5DDDFFF22F0DFFFFF20
:10129800FFFFFD0FFFFF000000000000000000003E
:1012A800FFFFFFFFFF777335555555555775555D4A
:1012B800DFFFFFD020FFFFFFFFFFF205FFFD00006B
:1012C8000000000000000000FFFFFFFFFF7753331E
:1012D8003555555555553DDDFFFFFFD00DFFFFFF37
:1012E800FFFFF20DFF2000000000000000000000DA
:1012F800FFFFFFFFFF7553355777777755555DDD4E
:10130800DDFFDFF02FFFFFFFFFFFFFDFD5500000FD
:101318000000000000000000FFFFFFFFFF5DF55721
:101328007777777775555FFDDDDFFFFDFFFFFFFFFF
:10133800FFFFFFFDFF52000000000000000000005A
:10134800FFFFFFFFFFFFF57777777777777555DD35
:10135800DDDDFFFFFFFFFFDDDDDFFFCDFD5D000011
:101368000000000000000000FFFFFFFFFFFFF7770D
:1013780077777777777755DDDDDDDFFFFFFFFFAD27
:10138800DDDDFFDDD5FF00000000000000000000EB
:10139800FFFFFFFFFF5FF777777777777777555D01
:1013A800DDDDDDFFFFFFFFADDDDDFFD55FFF000009
:1013B8000000000000000000FFFFFFFFFF5DF7775F
:1013C800777777777775555DDDDDDDFFFFFFFFAD5B
:1013D800DDDDFFDB575500000000000000000000C5
:1013E800FFFFFFFFFF555777777777777775555D5D
:1013F800DDDDDDFFFFFFFFADDDDDFFDD5535000085
:101408000000000000000000FFFFFFFFFF333577FA
:10141800777777777755555DDDDDFFFFFFFFFFAA0B
:10142800CCDFFFDD355300000000000000000000A5
:10143800FFFFFFFFFFF53377777777775555555DD2
:10144800DDDDDFFFFFFFFFDFFFFFFDDFDDFF00006A
:101458000000000000000000FFFFFFFFFFFFFF5734
:10146800777777775555555DDDDFFFFDDFFFFFFFA8
:10147800FFFFFD5FDDFF000000000000000000002E
:10148800FFFFFFFFFFFFFFD7777777775555555D4C
:10149800DFFFFDF00FFFFFFFFFFFFB555FFF0000C1
:1014A8000000000000000000FFFFFFFFFFFFFFD566
:1014B8007777777775555DDFFFFFFDF00DFFFFFF4D
:1014C800FFFFFDDFDDFF000000000000000000005E
:1014D800FFFFFFFFFFFFFFD3777777777535DFFFD4
:1014E800FFFFFFD0A0FFFFFFFFFFFFDFFF5D000052
:1014F8000000000000000000FFFFFFFFFFFFFFF3F8
:101508005577777533333DDFFFFFFF22F0DFFDFFAF
:10151800FFFFFFDDFF3000000000000000000000BA
:10152800FFFFFFFFFFFFFFF555577775333335553D
:10153800DFFFFF0DFC0FFFFFFFFDFFFD5520000043
:101548000000000000000000FFFFFFFFFFFFFFF5A5
:10155800777775575333355555DDFD0FFF0CFFFF72
:10156800FFF55FFFF200000000000000000000002F
:10157800FFFFFFFFFFFFFFFA577777777755333580
:10158800DDDFFA2FFFD0FFFFFD5355FFFD00000000
:101598000000000000000000FFFFFFFFFFFFFFF05A
:1015A800277777777777555555DDDADFFFFDDDD576
:1015B80055555FFFFF2000000000000000000000FC
:1015C800FFFFFFFFFFFFFFFD05777777777755551B
:1015D80055555DDDDDD223355555FFFFFFF0000081
:1015E8000000000000000000FFFFFFFFFFFFFFFFFB
:1015F800225777777777755555555555555555551C
:10160800555FFFFFFFF00000000000000000000031
:10161800FFFFFFFFFFFFFFFD30857777777777556F
:1016280055555555555535555DFFFFFFFFF20000DF
:101638000000000000000000FFFFFFFFFFFFFFFFAA
:1016480075085777777777755555555555535555C7
:10165800DFFFFFFFFFFF00000000000000000000A8
:10166800FFFFFFFFFFFFF5F7772885777777755539
:10167800555555555335555FFFFFFFFFFFFF0000D8
:101688000000000000000000FFFFFFFFFFFFF5F76C
:10169800775288277777775555555533335555FF02
:1016A800FFFFFFFFFFFF0000000000000000000038
:1016B800FFFFFFFFFFFFF5D7775208805777777551
:1016C800555555553325DFFFFFFFFFFFFFFF00008E
:1016D8000000000000000000FFFFFFFFFFFFFD57B4
:1016E800775320800252577533555555555555FF38
:1016F800FFFFFFFFFFFF00000000000000000000E8
:10170800FFFFFFFFFFFFFF557753320000008823DC
:101718003335555555555FFFFFFFFFFFFFFF0000AD
:101728000000000000000000FFFFFFFFFFFFFFF5C3
:1017380077533322D22000088D55555555DFFFFFCA
:10174800FFFFFFFFFFFF0000000000000000000097
:10175800FFFFFFFFFFFFFFFF77533533FFFFFFDD7D
:10176800FFFFFFFFFFFFFFFFFFFFFFFFFFFF00007F
:101778000000000000000000FFFFFFFFFFFFFFFF69
:1017880077553533DFFFFFFFFFFFFFFFFFFFFFFF49
:10179800FFFFFFFFFFFF0000000000000000000047
:1017A800FFFFFFFFFFFFFFFF553533533FFFFFFFED
:1017B800FFFFFFFFFFFFFFFFFFFFFFFFFFFF00002F
:1017C8000000000000000000FFFFFFFFFFFFFFFF19
:1017D800F535535535FFFFFFFFFFFFFFFFFFFFFF05
:1017E800FFFFFFFFFFFF00000000000000000000F7
:1017F800FFFFFFFFFFFFFFFFF555555533FFFFFFC5
:10180800FFFFFFFFFFFFFFFFFFFFFFFFFFFF0000DE
:101818000000000000000000FFFFFFFFFFFFFFFFC8
:10182800FD355555555FFFFFFFFFFFFFFFFFFFFF2A
:10183800FFFFFFFFFFFF00000000000000000000A6
:10184800FFFFFFFFFFFFFFFFFF5555555555FFFFF2
:10185800FFFFFFFFFFFFFFFFFFFFFFFFFFFF00008E
:101868000000000000000000FFFFFFFFFFFFFFFF78
:10187800FF5555555555DFFFFFFFFFFFFFFFFFFFE2
:10188800FFFFFFFFFFFF0000000000000000000056
:10189800FFFFFFFFFFFFFFFFFFF5555555553DFFC4
:1018A800FFFFFFFFFFFFFFFFFFFFFFFFFFFF00003E
:1018B8000000000000000000FFFFFFFFFFFFFFFF28
:1018C800FFF55555D55555DFFFFFFFFFFFFFFFFF1C
:1018D800FFFFFFFFFFFF0000000000000000000006
:1018E800F0004001000000000000FFFF00000000C1
:1018F800013F00000000EF000025270510093A7895
:101908004D05180D383A1F001F1A180A0F0645878B
:10191800320A070207050000010000000A822700BA
:021928000000BD
:00000001FF
